:100000000C9462000C948A000C948A000C948A0070
:100010000C948A000C948A000C948A000C948A0038
:100020000C948A000C948A000C948A000C948A0028
:100030000C948A000C948A000C948A000C948A0018
:100040000C944E020C948A000C948A000C948A0042
:100050000C948A000C948A000C948A000C948A00F8
:100060000C9498020C948A000000000024002700E1
:100070002A000000000023002600290000000000E4
:10008000250028002B0004040404040404040202D4
:100090000202020203030303030301020408102007
:1000A0004080010204081020010204081020000012
:1000B0000008000201000003040700000000000027
:1000C0000000640511241FBECFEFD8E0DEBFCDBF16
:1000D00021E0A2E1B1E001C01D92A93DB207E1F724
:1000E00011E0A0E0B1E0EAEFFAE002C005900D9265
:1000F000A231B107D9F710E0C2E6D0E004C02197E1
:10010000FE010E947505C136D107C9F70E94B303ED
:100110000C947B050C940000982F2091D80181E06D
:10012000213208F043C08091A8018111FCCF809159
:10013000D70132E03093A8019093A7019FEF9093ED
:10014000A6011092A5012093A401A7EBB1E0E4E879
:10015000F1E090E0291331C0109283019091830166
:10016000880F892B8093830180918201813049F52A
:1001700010928201809183018093BB008091BC002A
:1001800083FDF8CF85EC8093BC008091A80182307C
:10019000E1F38091A6018F3FB1F08091A6018032FA
:1001A000A1F08091A601803391F084E01092B60115
:1001B0001092D8011092B50108953D9131939F5F3F
:1001C000C9CF85EEE0CF80E0F1CF82E0EFCF83E0D2
:1001D000EDCF833081F028F4813099F08230A9F09E
:1001E00008958730A9F08830C9F08430B1F4809147
:1001F00080008F7D03C0809180008F778093800086
:10020000089584B58F7784BD089584B58F7DFBCF25
:100210008091B0008F778093B00008958091B000F6
:100220008F7DF9CF1F93CF93DF93E1EBF0E09491B3
:10023000EDE9F0E0D491E9E8F0E0C491CC23B9F025
:10024000182F992319F0892F0E94E900EC2FF0E074
:10025000EE0FFF1FE458FF4FA591B4918FB7F894AC
:10026000EC91111108C0D095DE23DC938FBFDF9194
:10027000CF911F910895DE2BF8CF3FB7F89480916E
:100280005A0190915B01A0915C01B0915D0126B58E
:10029000A89B05C02F3F19F00196A11DB11D3FBFBE
:1002A000BA2FA92F982F8827BC01CD01620F711D8D
:1002B000811D911D42E0660F771F881F991F4A9587
:1002C000D1F708958F929F92AF92BF92CF92DF9213
:1002D000EF92FF924B015C010E943D016B017C019A
:1002E0000E943D016C197D098E099F09683E73408B
:1002F00081059105A8F321E0821A9108A108B108AF
:1003000088EEC80E83E0D81EE11CF11C8114910414
:10031000A104B10429F7FF90EF90DF90CF90BF9038
:10032000AF909F908F90089585ED8093BC00809151
:10033000BC0084FDFCCF1092A801089520913201E9
:10034000260F3327331F21323105ECF42091A80109
:10035000FC0190E080E0243069F082E00895A091F3
:1003600032012191AC014E5E5E4FA40FB52FB11D3D
:100370002C930196861798F380913201680F609351
:10038000320180E0089581E008950895E0915F01D1
:1003900080915E01E81730F4F0E0E05AFE4F808172
:1003A00090E008958FEF9FEF089590915F01809105
:1003B0005E012FEF3FEF981748F4E92FF0E0E05A85
:1003C000FE4F208130E09F5F90935F01C901089547
:1003D00080915E0190915F01891B990B0895CF92E6
:1003E000DF92EF92FF920F931F93CF93DF937C01E5
:1003F000CB018A012091B501222389F0EB016B0129
:10040000C40ED51ECC15DD0569F06991D701ED91BB
:10041000FC910190F081E02DC7010995F3CF642F85
:100420000E949E01C801DF91CF911F910F91FF9013
:10043000EF90DF90CF900895CF93DF931F92CDB7C9
:10044000DEB769832091B5012223F9F02091D8010C
:10045000203258F021E030E0FC013383228390E029
:1004600080E00F90DF91CF9108958091B601E82F41
:10047000F0E0E954FE4F998190838F5F8093B6013D
:100480008093D80181E090E0ECCF61E0CE0101964D
:100490000E949E01F7CF90E080E008951F920F9296
:1004A0000FB60F9211242F933F938F939F93AF9387
:1004B000BF938091560190915701A0915801B0913E
:1004C00059013091550123E0230F2D3758F501963E
:1004D000A11DB11D209355018093560190935701A2
:1004E000A0935801B093590180915A0190915B01FA
:1004F000A0915C01B0915D010196A11DB11D809399
:100500005A0190935B01A0935C01B0935D01BF9190
:10051000AF919F918F913F912F910F900FBE0F90B0
:100520001F90189526E8230F0296A11DB11DD2CF6A
:100530001F920F920FB60F9211242F933F934F9358
:100540005F936F937F938F939F93AF93BF93EF933B
:10055000FF938091B900887F803609F44AC0F0F596
:10056000883209F4A5C018F5803109F499C0B8F4AF
:10057000882309F4F5C0883009F492C0FF91EF9107
:10058000BF91AF919F918F917F916F915F914F91AB
:100590003F912F910F900FBE0F901F9018958831AB
:1005A00009F486C0803251F78093A60114C08034CC
:1005B00009F49BC040F48033B9F38833F9F6809393
:1005C000A60185ECAEC0803509F483C0883509F4F6
:1005D00094C0883499F60E949401D0CF883909F4E8
:1005E0008AC038F5883729F050F4883611F0803702
:1005F00029F683E08093A8011092540155C08838F1
:1006000009F479C0803919F0803809F0B7CF8091AA
:100610005401803208F06FC0E091540181E08E0FE8
:10062000809354018091BB00F0E0EC5CFE4F80832E
:100630003BC0803B39F0D0F4803A09F477C0883A67
:1006400009F09CCF84E08093A801109233011092AE
:100650003201F0E0E0E009958091320181110FC094
:1006600081E0809332011092120109C0803C09F4AC
:10067000A8CF883C09F4A5CF883B09F07FCFE09153
:10068000330181E08E0F80933301F0E0EE5EFE4F88
:1006900080818093BB00909133018091320129C009
:1006A000809183018093BB0085EC8093BC0066CF72
:1006B0009091A5018091A401981758F5E091A501AA
:1006C00081E08E0F8093A501F0E0EC57FE4F808112
:1006D000E9CFE091A50181E08E0F8093A501809183
:1006E000BB00F0E0EC57FE4F80839091A501809114
:1006F000A4019817C8F285E8D8CFE091A50181E060
:100700008E0F8093A5018091BB00F0E0EC57FE4F67
:1007100080838091A70181115ECF81E08093820167
:1007200084EA8093BC001092A80128CF85EC8093C6
:10073000BC001092A80180915401803230F4E09105
:100740005401F0E0EC5CFE4F10826091540170E0C7
:1007500084E391E0F0E0E0E00995109254010ECFBF
:100760001092A60138CF789484B5826084BD84B598
:10077000816084BD85B5826085BD85B5816085BD9C
:1007800080916E00816080936E0010928100809154
:1007900081008260809381008091810081608093DC
:1007A0008100809180008160809380008091B10001
:1007B00084608093B1008091B00081608093B0002C
:1007C00080917A00846080937A0080917A008260C0
:1007D00080937A0080917A00816080937A00809182
:1007E0007A00806880937A001092C100CCE9D0E052
:1007F000FE01249108E810E0F80184918823C9F0F3
:1008000090E0880F991FFC01E859FF4FA591B49122
:10081000FC01E458FF4F459154913FB7F8949C91E7
:10082000822F809598239C93FA019081892380835D
:100830003FBFEDE9F0E02491E9E8F0E084918823FE
:1008400099F090E0880F991FFC01E859FF4FA5919E
:10085000B491FC01E458FF4F859194918FB7F894BF
:10086000EC91E22BEC938FBF5524539468E6462E0F
:1008700070EBC72E70E0D72EE0E0AE2EE0E0BE2E8B
:1008800088248394912C5092B5014092D701109204
:10089000B6011092D80160E089EA91E00E941C0242
:1008A00081E00E948C008091A8018111FCCF5092C0
:1008B000A8015092A701FFEFF093A6011092A501A5
:1008C00086E08093A4015092830180918301806D22
:1008D0008093830180918201813009F0EDC01092F4
:1008E0008201809183018093BB008091BC0083FDD5
:1008F000F8CFE5ECE093BC008091A8018130E1F3F2
:100900008091A50197E0873010F49091A501E4E86B
:10091000F1E0A0E6B1E080E08913D2C010925F015F
:1009200080935E0189EA91E00E94D501382E89EA20
:1009300091E00E94D5017C0189EA91E00E94D501F5
:100940009C0154E0359527955A95E1F72F70332790
:10095000922F990F990F622E691A660C680E89EA18
:1009600091E00E94D50189EA91E00E94D50189EACF
:1009700091E00E94D50189EA91E00E94D501F6013B
:100980008491FE012490F8017490772009F44BC003
:1009900081110E94E900E72DF0E0EE0FFF1FEE58F5
:1009A000FF4FA591B4918C912822E9F180918001AB
:1009B00090918101892BB9F55092B5014092D701F0
:1009C0001092B6011092D80160E089EA91E00E948D
:1009D0001C0260E089EA91E00E941C0261E189EA60
:1009E00091E00E941C0260E089EA91E00E941C02F2
:1009F00060E089EA91E00E941C0262E189EA91E0EC
:100A00000E941C0263E089EA91E00E941C0261E2FC
:100A100089EA91E00E941C0281E00E948C00909281
:100A200081018092800161103AC0C70134E0959540
:100A300087953A95E1F78F709927982F990F990F1D
:100A4000891B880F8E0D8D3151F5E89437F8832D71
:100A500090E024E0959587952A95E1F7982F990FD6
:100A6000990F891B880F830D8F30C9F483E0E82E1E
:100A7000F12C81E00E94120160ED77E080E090E0CF
:100A80000E94620180E00E94120160ED77E080E048
:100A900090E00E946201F1E0EF1AF10851F764EF73
:100AA00071E080E090E00E946201A114B10409F4B9
:100AB000EACE0E940000E7CEF5EEF093BC001CCF1A
:100AC00021912D938F5F28CFE9EAF1E01382128202
:100AD00088EE93E0A0E0B0E084839583A683B7839B
:100AE00084E091E0918380830895EE0FFF1F0590CD
:0A0AF000F491E02D0994F894FFCF73
:100AFA00000000001C02EF014B02C501E801D5010C
:020B0A00C60122
:107E0000112484B714BE81FFF0D085E080938100F7
:107E100082E08093C00088E18093C10086E0809377
:107E2000C20080E18093C4008EE0C9D0259A86E02C
:107E300020E33CEF91E0309385002093840096BBD3
:107E4000B09BFECF1D9AA8958150A9F7CC24DD24C4
:107E500088248394B5E0AB2EA1E19A2EF3E0BF2EE7
:107E6000A2D0813461F49FD0082FAFD0023811F036
:107E7000013811F484E001C083E08DD089C08234E0
:107E800011F484E103C0853419F485E0A6D080C0E4
:107E9000853579F488D0E82EFF2485D0082F10E0AE
:107EA000102F00270E291F29000F111F8ED06801E7
:107EB0006FC0863521F484E090D080E0DECF843638
:107EC00009F040C070D06FD0082F6DD080E0C81688
:107ED00080E7D80618F4F601B7BEE895C0E0D1E017
:107EE00062D089930C17E1F7F0E0CF16F0E7DF06D8
:107EF00018F0F601B7BEE89568D007B600FCFDCFD4
:107F0000A601A0E0B1E02C9130E011968C91119780
:107F100090E0982F8827822B932B1296FA010C0160
:107F200087BEE89511244E5F5F4FF1E0A038BF0790
:107F300051F7F601A7BEE89507B600FCFDCF97BE46
:107F4000E89526C08437B1F42ED02DD0F82E2BD052
:107F50003CD0F601EF2C8F010F5F1F4F84911BD097
:107F6000EA94F801C1F70894C11CD11CFA94CF0C13
:107F7000D11C0EC0853739F428D08EE10CD085E9AC
:107F80000AD08FE07ACF813511F488E018D01DD067
:107F900080E101D065CF982F8091C00085FFFCCF94
:107FA0009093C60008958091C00087FFFCCF809118
:107FB000C00084FD01C0A8958091C6000895E0E648
:107FC000F0E098E1908380830895EDDF803219F02E
:107FD00088E0F5DFFFCF84E1DECF1F93182FE3DFCA
:107FE0001150E9F7F2DF1F91089580E0E8DFEE27F6
:047FF000FF270994CA
:027FFE00040479
:0400000300007E007B
:00000001FF
