:100000000C945D000C9485000C9485000C94850084
:100010000C9485000C9485000C9485000C9485004C
:100020000C9485000C9485000C9485000C9485003C
:100030000C9485000C9485000C9485000C9485002C
:100040000C94E0010C9485000C9485000C948500C0
:100050000C9485000C9485000C9485000C9485000C
:100060000C942A020C948500000000002400270054
:100070002A0000000000250028002B0004040404CE
:100080000404040402020202020203030303030342
:10009000010204081020408001020408102001021F
:1000A00004081020000000080002010000030407FB
:1000B0000000000000000000E20411241FBECFEF8A
:1000C000D8E0DEBFCDBF21E0A2E1B1E001C01D92CA
:1000D000A73DB207E1F711E0A0E0B1E0E6EFF9E0FB
:1000E00002C005900D92A231B107D9F710E0CDE51D
:1000F000D0E004C02197FE010E94F304CC35D10763
:10010000C9F70E9445030C94F9040C940000E7EA37
:10011000F0E02491E3E9F0E09491EFE7F0E0E4917E
:10012000EE23C9F0222339F0233001F1A8F4213065
:1001300019F1223029F1F0E0EE0FFF1FEE58FF4FCA
:10014000A591B4912FB7F894EC91811126C09095A8
:100150009E239C932FBF08952730A9F02830C9F023
:10016000243049F7209180002F7D03C0209180002A
:100170002F7720938000DFCF24B52F7724BDDBCFEE
:1001800024B52F7DFBCF2091B0002F772093B000B6
:10019000D2CF2091B0002F7DF9CF9E2BDACF3FB781
:1001A000F89480915A0190915B01A0915C01B0910B
:1001B0005D0126B5A89B05C02F3F19F00196A11D32
:1001C000B11D3FBFBA2FA92F982F8827BC01CD01A1
:1001D000620F711D811D911D42E0660F771F881F00
:1001E000991F4A95D1F708958F929F92AF92BF922F
:1001F000CF92DF92EF92FF924B015C010E94CF0001
:100200006B017C010E94CF006C197D098E099F094A
:10021000683E734081059105A8F321E0821A910898
:10022000A108B10888EEC80E83E0D81EE11CF11CBD
:1002300081149104A104B10429F7FF90EF90DF909D
:10024000CF90BF90AF909F908F90089585ED809351
:10025000BC008091BC0084FDFCCF1092A8010895E1
:1002600020913201260F3327331F21323105ECF460
:100270002091A801FC0190E080E0243069F082E048
:100280000895A09132012191AC014E5E5E4FA40F02
:10029000B52FB11D2C930196861798F380913201EA
:1002A000680F6093320180E0089581E00895089519
:1002B000E091AA018091A901E81730F4F0E0E5553A
:1002C000FE4F808190E008958FEF9FEF0895909109
:1002D000AA018091A9012FEF3FEF981748F4E92F69
:1002E000F0E0E555FE4F208130E09F5F9093AA013A
:1002F000C90108958091A9019091AA01891B990BC8
:100300000895CF92DF92EF92FF920F931F93CF93B6
:10031000DF937C01CB018A0120915E01222389F0C9
:10032000EB016B01C40ED51ECC15DD0569F069919A
:10033000D701ED91FC910190F081E02DC701099565
:10034000F3CF642F0E943001C801DF91CF911F913C
:100350000F91FF90EF90DF90CF900895CF93DF93B0
:100360001F92CDB7DEB7698320915E012223F9F099
:1003700020918101203258F021E030E0FC013383EC
:10038000228390E080E00F90DF91CF9108958091DB
:100390005F01E82FF0E0E05AFE4F998190838F5F74
:1003A00080935F018093810181E090E0ECCF61E078
:1003B000CE0101960E943001F7CF90E080E00895D1
:1003C0001F920F920FB60F9211242F933F938F938A
:1003D0009F93AF93BF938091560190915701A09145
:1003E0005801B09159013091550123E0230F2D3769
:1003F00058F50196A11DB11D20935501809356011A
:1004000090935701A0935801B093590180915A01DC
:1004100090915B01A0915C01B0915D010196A11DDD
:10042000B11D80935A0190935B01A0935C01B0933E
:100430005D01BF91AF919F918F913F912F910F904F
:100440000FBE0F901F90189526E8230F0296A11D4E
:10045000B11DD2CF1F920F920FB60F9211242F937E
:100460003F934F935F936F937F938F939F93AF933C
:10047000BF93EF93FF938091B900887F803609F492
:100480004AC0F0F5883209F4A5C018F5803109F4A6
:1004900099C0B8F4882309F4F5C0883009F492C0F3
:1004A000FF91EF91BF91AF919F918F917F916F914C
:1004B0005F914F913F912F910F900FBE0F901F9022
:1004C0001895883109F486C0803251F78093A601CF
:1004D00014C0803409F49BC040F48033B9F38833EE
:1004E000F9F68093A60185ECAEC0803509F483C08F
:1004F000883509F494C0883499F60E942601D0CF3B
:10050000883909F48AC038F5883729F050F48836DC
:1005100011F0803729F683E08093A80110925401EE
:1005200055C0883809F479C0803919F0803809F04D
:10053000B7CF80915401803208F06FC0E091540130
:1005400081E08E0F809354018091BB00F0E0EC5C61
:10055000FE4F80833BC0803B39F0D0F4803A09F4F1
:1005600077C0883A09F09CCF84E08093A80110926C
:10057000330110923201F0E0E0E009958091320100
:1005800081110FC081E0809332011092120109C0E5
:10059000803C09F4A8CF883C09F4A5CF883B09F03A
:1005A0007FCFE091330181E08E0F80933301F0E043
:1005B000EE5EFE4F80818093BB009091330180916D
:1005C000320129C08091A3018093BB0085EC809308
:1005D000BC0066CF9091A5018091A401981758F5B1
:1005E000E091A50181E08E0F8093A501F0E0EE5728
:1005F000FE4F8081E9CFE091A50181E08E0F8093CD
:10060000A5018091BB00F0E0EE57FE4F80839091F2
:10061000A5018091A4019817C8F285E8D8CFE09190
:10062000A50181E08E0F8093A5018091BB00F0E0D1
:10063000EE57FE4F80838091A70181115ECF81E04C
:100640008093A20184EA8093BC001092A80128CF75
:1006500085EC8093BC001092A801809154018032F7
:1006600030F4E0915401F0E0EC5CFE4F10826091B8
:10067000540170E084E391E0F0E0E0E0099510922D
:1006800054010ECF1092A60138CF789484B58260C1
:1006900084BD84B5816084BD85B5826085BD85B526
:1006A000816085BD80916E00816080936E001092A4
:1006B000810080918100826080938100809181001F
:1006C00081608093810080918000816080938000B0
:1006D0008091B10084608093B1008091B00081600E
:1006E0008093B00080917A00846080937A0080913A
:1006F0007A00826080937A0080917A008160809392
:100700007A0080917A00806880937A001092C1000C
:10071000E2E9F0E02491EEE7F0E084918823C1F073
:1007200090E0880F991FFC01E859FF4FC591D491C3
:10073000FC01EE58FF4FA591B4919FB7F8948881C2
:10074000E22FE0958E2388838C91E823EC939FBF62
:10075000E3E9F0E02491EFE7F0E08491882399F059
:1007600090E0880F991FFC01E859FF4FA591B491C3
:10077000FC01EE58FF4F859194918FB7F894EC915E
:10078000E22BEC938FBFC1E058E6B52ED5EE65ECB9
:10079000D62E76E0A72EE0E0EE2EE0E0FE2EF2E090
:1007A0009F2ECC24CA94C0935E01B0928001109217
:1007B0005F011092810160E08BEC91E00E94AE013C
:1007C000909181019132D0F58091A8018111FCCFE7
:1007D0009092A801C093A701C092A6011092A50112
:1007E0009093A401E0E6F1E0A2E8B1E09813DCC048
:1007F0001092A3018091A301806D8093A301809149
:10080000A201813009F0D4C01092A2018091A3010D
:100810008093BB008091BC0083FDF8CFD092BC00D8
:100820008091A8018230E1F38091A6018F3F31F0E1
:100830008091A601803211F08091A60110925F0193
:100840001092810110925E018091A8018111FCCF6C
:10085000C093A801C093A701C092A6011092A50160
:10086000A092A401C093A3018091A301806D809305
:10087000A3018091A201813009F09DC01092A201D4
:100880008091A3018093BB008091BC0083FDF8CFD1
:10089000D092BC008091A8018130E1F38091A50144
:1008A00097E0873010F49091A501E2E8F1E0ABEA1F
:1008B000B1E080E0891382C01092AA018093A9015F
:1008C0008BEC91E00E946701882E8BEC91E00E94F6
:1008D00067018C018BEC91E00E9467019C0144E070
:1008E000359527954A95E1F72F703327922F990F69
:1008F000990F722E791A770C780E8BEC91E00E948A
:1009000067018BEC91E00E9467018BEC91E00E9403
:1009100067018BEC91E00E946701711038C0C8013B
:1009200024E0959587952A95E1F78F709927982F60
:10093000990F990F891B880F080F0D3141F5882DEC
:100940008F77282F30E094E0359527959A95E1F739
:10095000922F990F990F291B220F280F2F30B9F4CE
:1009600003E010E081E00E94870060ED77E080E026
:1009700090E00E94F40080E00E94870060ED77E044
:1009800080E090E00E94F4000150110959F764EFF3
:1009900071E080E090E00E94F400E114F10409F4B9
:1009A00002CF0E940000FFCE21912D938F5F1ECFBA
:1009B000D093BC0035CFD093BC006CCF21912D9348
:1009C0008F5F78CFEBECF1E01382128288EE93E038
:1009D000A0E0B0E084839583A683B78384E091E0B0
:1009E000918380830895EE0FFF1F0590F491E02D11
:0609F0000994F894FFCF0A
:1009F60000000000AE018101DD0157017A016701A7
:020A0600580195
:107E0000112484B714BE81FFF0D085E080938100F7
:107E100082E08093C00088E18093C10086E0809377
:107E2000C20080E18093C4008EE0C9D0259A86E02C
:107E300020E33CEF91E0309385002093840096BBD3
:107E4000B09BFECF1D9AA8958150A9F7CC24DD24C4
:107E500088248394B5E0AB2EA1E19A2EF3E0BF2EE7
:107E6000A2D0813461F49FD0082FAFD0023811F036
:107E7000013811F484E001C083E08DD089C08234E0
:107E800011F484E103C0853419F485E0A6D080C0E4
:107E9000853579F488D0E82EFF2485D0082F10E0AE
:107EA000102F00270E291F29000F111F8ED06801E7
:107EB0006FC0863521F484E090D080E0DECF843638
:107EC00009F040C070D06FD0082F6DD080E0C81688
:107ED00080E7D80618F4F601B7BEE895C0E0D1E017
:107EE00062D089930C17E1F7F0E0CF16F0E7DF06D8
:107EF00018F0F601B7BEE89568D007B600FCFDCFD4
:107F0000A601A0E0B1E02C9130E011968C91119780
:107F100090E0982F8827822B932B1296FA010C0160
:107F200087BEE89511244E5F5F4FF1E0A038BF0790
:107F300051F7F601A7BEE89507B600FCFDCF97BE46
:107F4000E89526C08437B1F42ED02DD0F82E2BD052
:107F50003CD0F601EF2C8F010F5F1F4F84911BD097
:107F6000EA94F801C1F70894C11CD11CFA94CF0C13
:107F7000D11C0EC0853739F428D08EE10CD085E9AC
:107F80000AD08FE07ACF813511F488E018D01DD067
:107F900080E101D065CF982F8091C00085FFFCCF94
:107FA0009093C60008958091C00087FFFCCF809118
:107FB000C00084FD01C0A8958091C6000895E0E648
:107FC000F0E098E1908380830895EDDF803219F02E
:107FD00088E0F5DFFFCF84E1DECF1F93182FE3DFCA
:107FE0001150E9F7F2DF1F91089580E0E8DFEE27F6
:047FF000FF270994CA
:027FFE00040479
:0400000300007E007B
:00000001FF
