:100000000C945D000C9485000C9485000C94850084
:100010000C9485000C9485000C9485000C9485004C
:100020000C9485000C9485000C9485000C9485003C
:100030000C9485000C9485000C9485000C9485002C
:100040000C948A040C9485000C9485000C94850013
:100050000C9485000C9485000C9485000C9485000C
:100060000C94D4040C9485000000000024002700A8
:100070002A0000000000250028002B0004040404CE
:100080000404040402020202020203030303030342
:10009000010204081020408001020408102001021F
:1000A00004081020000000080002010000030407FB
:1000B0000000000000000000F30511241FBECFEF78
:1000C000D8E0DEBFCDBF11E0A0E0B1E0ECEEF0E1A2
:1000D00002C005900D92A433B107D9F722E0A4E342
:1000E000B1E001C01D92A731B207E1F710E0CDE504
:1000F000D0E004C02197FE010E946E08CC35D107E4
:10010000C9F70E9421060C9474080C940000982FE3
:100110002091F20181E0213208F043C08091CE01AC
:100120008111FCCF8091F10132E03093CE019093A8
:10013000CD019FEF9093CC011092CB012093CA0187
:10014000A1EDB1E0EAEAF1E090E0291331C01092AC
:10015000A9019091A901880F892B8093A901809111
:10016000A801813049F51092A8018091A9018093DE
:10017000BB008091BC0083FDF8CF85EC8093BC0070
:100180008091CE018230E1F38091CC018F3FB1F0BC
:100190008091CC018032A1F08091CC01803391F02C
:1001A00084E01092D0011092F2011092CF010895D4
:1001B0003D9131939F5FC9CF85EEE0CF80E0F1CFD5
:1001C00082E0EFCF83E0EDCF83E480937C008091E9
:1001D0007A00806480937A0080917A0086FDFCCF5B
:1001E0008091780090917900089508950895AF92D4
:1001F000BF92CF92DF92EF92FF920F931F93CF9314
:10020000DF936C017B018B01040F151FEB015E0175
:10021000AE18BF08C017D10759F06991D601ED910A
:10022000FC910190F081E02DC6010995892B79F7A9
:10023000C501DF91CF911F910F91FF90EF90DF905B
:10024000CF90BF90AF90089590E0FC01EC55FF4F28
:100250002491FC01E057FF4F3491FC01E458FF4F1B
:10026000E491EE23C9F0222339F0233001F1A8F400
:10027000213019F1223029F1F0E0EE0FFF1FEE5886
:10028000FF4FA591B4918FB7F894EC91611126C0FE
:1002900030953E233C938FBF08952730A9F0283036
:1002A000C9F0243049F7809180008F7D03C0809190
:1002B00080008F7780938000DFCF84B58F7784BDF7
:1002C000DBCF84B58F7DFBCF8091B0008F7780939B
:1002D000B000D2CF8091B0008F7DF9CF3E2BDACF26
:1002E000CF93DF9390E0FC01E057FF4F24918458B7
:1002F0009F4FFC0184918823D1F090E0880F991FD3
:10030000FC01E859FF4FA591B491FC01EE58FF4F55
:10031000C591D49161110EC09FB7F8948C91E22FD2
:10032000E0958E238C932881E223E8839FBFDF91A1
:10033000CF9108958FB7F894EC91E22BEC938FBF97
:10034000F6CF3FB7F89480917C0190917D01A09108
:100350007E01B0917F0126B5A89B05C02F3F19F003
:100360000196A11DB11D3FBFBA2FA92F982F882735
:10037000BC01CD01620F711D811D911D42E0660F10
:10038000771F881F991F4A95D1F708958F929F92E2
:10039000AF92BF92CF92DF92EF92FF924B015C013E
:1003A0000E94A1016B017C010E94A1016C197D09D1
:1003B0008E099F09683E734081059105A8F321E0ED
:1003C000821A9108A108B10888EEC80E83E0D81EF1
:1003D000E11CF11C81149104A104B10429F7FF90E0
:1003E000EF90DF90CF90BF90AF909F908F90089547
:1003F00085ED8093BC008091BC0084FDFCCF109201
:10040000CE01089520915401260F3327331F213246
:100410003105ECF42091CE01FC0190E080E0243025
:1004200069F082E00895A09154012191AC014C5CE7
:100430005E4FA40FB52FB11D2C930196861798F32C
:1004400080915401680F6093540180E0089581E029
:1004500008950895E091850180918401E81730F4B2
:10046000F0E0EA57FE4F808190E008958FEF9FEF14
:10047000089590918501809184012FEF3FEF9817A7
:1004800048F4E92FF0E0EA57FE4F208130E09F5F0B
:1004900090938501C901089580918401909185010F
:1004A000891B990B0895CF92DF92EF92FF920F93E1
:1004B0001F93CF93DF937C01CB018A012091CF0161
:1004C000222389F0EB016B01C40ED51ECC15DD058E
:1004D00069F06991D701ED91FC910190F081E02DD7
:1004E000C7010995F3CF642F0E940202C801DF9172
:1004F000CF911F910F91FF90EF90DF90CF900895D3
:10050000CF93DF931F92CDB7DEB769832091CF01E0
:100510002223F9F02091F201203258F021E030E05E
:10052000FC013383228390E080E00F90DF91CF9134
:1005300008958091D001E82FF0E0EF52FE4F9981AD
:1005400090838F5F8093D0018093F20181E090E0EF
:10055000ECCF61E0CE0101960E940202F7CF089530
:1005600090E080E008958F929F92AF92BF920F9398
:100570001F93CF93DF93CDB7DEB7A1970FB6F89453
:10058000DEBF0FBECDBF19A2423008F44AE08E0193
:100590000F5D1F4F842E912CB12CA12CA50194012D
:1005A0000E943608E62FB901CA01EA3044F5E05D41
:1005B000D801EE938D01232B242B252B79F790E086
:1005C00080E0109769F0FD0101900020E9F7319774
:1005D000AF014A1B5B0BBD018FEF91E00E94F7005A
:1005E000A1960FB6F894DEBF0FBECDBFDF91CF91BD
:1005F0001F910F91BF90AF909F908F900895E95CED
:10060000D7CFFC0101900020E9F73197AF01481BDB
:10061000590BBC018FEF91E00C94F700CF93DF935F
:10062000EC0160E08E810E94240161E08E810E94D5
:10063000240160E08E810E9424018BE891E0019703
:10064000F1F7DF91CF910895CF92DF92EF92FF9271
:100650000F931F93CF93DF936C017C0187E0E80E2B
:10066000F11CD0E0C0E0062F10E0B8010C2E02C053
:10067000759567950A94E2F76170F70181917F01A2
:100680000E9424012196C430D10579F7C601DF917B
:10069000CF911F910F91FF90EF90DF90CF900C942E
:1006A0000E03CF92DF92EF92FF920F931F93CF939F
:1006B000DF93EC01F62E642F8C810E9424018D8142
:1006C0008F3F19F060E00E9424010F2D10E08F850C
:1006D00084FF25C06E0187E0C80ED11CF12CE12CEF
:1006E000B8010E2C02C0759567950A94E2F7617007
:1006F000F60181916F010E942401FFEFEF1AFF0ABA
:1007000088E0E816F10461F7CE01DF91CF911F91E7
:100710000F91FF90EF90DF90CF900C940E03B801F3
:1007200084E0759567958A95E1F7CE010E942403D0
:100730006F2DCE01DF91CF911F910F91FF90EF9020
:10074000DF90CF900C94240340E0682F8FEF91E06E
:100750000C945103CF93DF93823029F490910E02D1
:10076000986090930E02809312021092130280E41C
:100770008093140280E18093150280E58093160235
:1007800061E0809103020E947001809104028F3F1A
:1007900019F061E00E94700161E0809105020E9401
:1007A0007001CFEFD1E09E012F5F314080910E02AA
:1007B00084FD0BC084E090E021962817390744F4AB
:1007C00061E08E810E947001EECF88E090E0F4CF6E
:1007D0008BE39DE00197F1F760E0809103020E94B6
:1007E000240160E0809105020E94240180910402AE
:1007F0008F3F19F060E00E94240180910E0284FD79
:1008000039C063E08FEF91E00E942403CBE4D6E48B
:10081000CE010197F1F763E08FEF91E00E9424038E
:100820002197F1F763E08FEF91E00E94240383E5C5
:1008300092E00197F1F762E08FEF91E00E942403CC
:1008400080910E0280620E94A40384E080930F02D4
:100850008CE00E94A40381E00E94A4038BE39FE14B
:100860000197F1F782E08093100286E0DF91CF914B
:100870000C94A40380620E94A4038BE496E4019785
:10088000F1F780910E0280620E94A40383E592E05A
:100890000197F1F780910E0280620E94A403D0CFED
:1008A00090911202691710F06FEF690FE62FF0E0D8
:1008B000E150FE4F9489890F80680C94A40341E0B5
:1008C0000E94510381E090E00895CF92DF92EF9271
:1008D000FF9297FF18C06B017C0141E06DE28FEF42
:1008E00091E00E94510366277727CB016C197D099F
:1008F0008E099F094AE00E94B3020196FF90EF9093
:10090000DF90CF9008954AE0FF90EF90DF90CF9076
:100910000C94B3021F920F920FB60F9211242F93D3
:100920003F938F939F93AF93BF9380917801909162
:100930007901A0917A01B0917B013091770123E098
:10094000230F2D3758F50196A11DB11D2093770176
:100950008093780190937901A0937A01B0937B0101
:1009600080917C0190917D01A0917E01B0917F01E9
:100970000196A11DB11D80937C0190937D01A093F0
:100980007E01B0937F01BF91AF919F918F913F9175
:100990002F910F900FBE0F901F90189526E8230FF0
:1009A0000296A11DB11DD2CF1F920F920FB60F92CA
:1009B00011242F933F934F935F936F937F938F9364
:1009C0009F93AF93BF93EF93FF938091B900887F7C
:1009D000803609F44AC0F0F5883209F4A7C018F54A
:1009E000803109F49BC0B8F4882309F4F9C0883039
:1009F00009F494C0FF91EF91BF91AF919F918F91B6
:100A00007F916F915F914F913F912F910F900FBE0A
:100A10000F901F901895883109F488C0803251F7E3
:100A20008093CC0114C0803409F49DC040F480331D
:100A3000B9F38833F9F68093CC0185ECB0C08035EA
:100A400009F485C0883509F496C0883499F60E9467
:100A5000F801D0CF883909F48CC038F5883729F0EF
:100A600050F4883611F0803729F683E08093CE0168
:100A70001092760157C0883809F47BC0803919F08C
:100A8000803809F0B7CF80917601803208F071C0CC
:100A9000E091760181E08E0F809376018091BB001A
:100AA000F0E0EA5AFE4F80833DC0803B39F0E0F42D
:100AB000803A09F479C0883A09F09CCF84E08093A9
:100AC000CE011092550110925401E0918201F091F3
:100AD000830109958091540181110FC081E08093B9
:100AE00054011092340109C0803C09F4A6CF883C1F
:100AF00009F4A3CF883B09F07DCFE091550181E057
:100B00008E0F80935501F0E0EC5CFE4F8081809366
:100B1000BB00909155018091540129C08091A90199
:100B20008093BB0085EC8093BC0064CF9091CB0197
:100B30008091CA01981758F5E091CB0181E08E0FA2
:100B40008093CB01F0E0E655FE4F8081E9CFE09144
:100B5000CB0181E08E0F8093CB018091BB00F0E050
:100B6000E655FE4F80839091CB018091CA01981782
:100B7000C8F285E8D8CFE091CB0181E08E0F809359
:100B8000CB018091BB00F0E0E655FE4F8083809161
:100B9000CD0181115CCF81E08093A80184EA80932C
:100BA000BC001092CE0126CF85EC8093BC00109241
:100BB000CE0180917601803230F4E0917601F0E050
:100BC000EA5AFE4F10826091760170E0E091800158
:100BD000F091810186E591E00995109276010ACFA6
:100BE0001092CC0134CFE3EFF1E01382128288EE51
:100BF00093E0A0E0B0E084839583A683B78384E08C
:100C000091E091838083EFEFF1E01382128286E11D
:100C100091E09183808386E084838FEF858387E0F2
:100C2000868382E0878383E0808784E0818785E014
:100C300082871386148615861686178681E00C94A3
:100C4000AA03789484B5826084BD84B5816084BD34
:100C500085B5826085BD85B5816085BD80916E005A
:100C6000816080936E00109281008091810082608B
:100C700080938100809181008160809381008091C8
:100C800080008160809380008091B10084608093B7
:100C9000B1008091B00081608093B00080917A00B3
:100CA000846080937A0080917A00826080937A00D9
:100CB00080917A00816080937A0080917A008068C8
:100CC00080937A001092C10082E00E94AA031092E1
:100CD0008501109284011092D0011092F2011092BD
:100CE000CE0181E08093CD011092A80161E082E104
:100CF0000E94240161E083E10E9424018091B900F7
:100D00008E7F8093B9008091B9008D7F8093B90068
:100D100088E48093B80085E48093BC0085EF90E080
:100D2000909383018093820186EF90E090938101FC
:100D30008093800188E68093F1011092F20181E0B6
:100D40000E94870061E080E00E94700161E081E024
:100D50000E94700160E081E10E94700160E089E022
:100D60000E94700160E088E00E94700160E080E114
:100D70000E94700160E08DE00E94700160E08CE0F4
:100D80000E94700160E08BE00E94700160E08AE0E8
:100D90000E947001D1E068E6562EDD24DA9475EEEB
:100DA000C72EE5EC7E2E812C912C54018A94ABE366
:100DB000EA2EAFE1FA2E00E010E056E0652ED09367
:100DC000CF015092F1011092D0011092F20160E037
:100DD00083EF91E00E94800281E00E948700809171
:100DE000CE018111FCCFD093CE01D093CD01D09212
:100DF000CC011092CB016092CA01D093A9018091DD
:100E0000A901806D8093A9018091A801813009F02A
:100E1000DCC01092A8018091A9018093BB00809151
:100E2000BC0083FDF8CF7092BC008091CE01813070
:100E3000E1F38091CB0197E0873010F49091CB01E2
:100E4000AAEAB1E0E6E8F1E080E08913C1C01092BF
:100E500085018093840183EF91E00E94390283EF42
:100E600091E00E9439029C0194E0359527959A956E
:100E7000E1F72F703327922F990F990FC22FC91BBB
:100E8000CC0FC80F83EF91E00E9439029C0144E02F
:100E9000359527954A95E1F72F703327922F990FB3
:100EA000990F422E491A440C480E83EF91E00E949C
:100EB000390283EF91E00E94390283EF91E00E94B2
:100EC000390283EF91E00E94390260E085E00E94E0
:100ED0005004642D70E090E080E00E94650481E39E
:100EE00091E00E9401036C2F70E090E080E00E948E
:100EF000650461E081E00E9450048EE191E00E946F
:100F0000010361E08EE00E94500480E291E00E94C3
:100F1000010322E1421284C0CE50C23008F080C0EA
:100F20000E94E40028EE33E0DC010E946708A5017E
:100F300094010E9417083093A7012093A601809185
:100F4000A6019091A701843F91400CF045C00E94FA
:100F5000E40028EE33E0DC010E946708A50194015B
:100F60000E9417083093A7012093A60161E081E059
:100F70000E94240162E070E080E090E00E94C601DF
:100F800060E081E00E94240162E170E080E090E096
:100F90000E94C60161E080E00E94240160E080E0E0
:100FA0000E94500482E291E00E94010361E085E02A
:100FB0000E9450046091A6017091A701072E000CB9
:100FC000880B990B0E946504BACFC092BC002DCF4C
:100FD0002D9121938F5F39CF62E370E080E090E044
:100FE0000E94C60161E081E00E94240161E070E09E
:100FF00080E090E00E94C60160E081E00E94240150
:1010000063E170E080E090E00E94C60160E080E073
:101010000E94240181E00E94A403C7010197F1F717
:101020000115110509F4CBCE0E940000C6CE052E95
:1010300097FB1EF400940E942E0857FD07D00E94D3
:10104000360807FC03D04EF40C942E0850954095BA
:10105000309521953F4F4F4F5F4F08959095809564
:10106000709561957F4F8F4F9F4F0895A1E21A2E83
:10107000AA1BBB1BFD010DC0AA1FBB1FEE1FFF1F3C
:10108000A217B307E407F50720F0A21BB30BE40B8C
:10109000F50B661F771F881F991F1A9469F76095D3
:1010A0007095809590959B01AC01BD01CF0108958D
:1010B000A29FB001B39FC001A39F700D811D112499
:1010C000911DB29F700D811D1124911D08950E94E4
:1010D0005808B7FF0895821B930B0895EE0FFF1F6A
:0C10E0000590F491E02D0994F894FFCFE6
:1010EC000000000080025302B00229024C023902B7
:1010FC002A02000000005F04F700B002AF023C00BF
:10110C003E005065736F2064612063616D6275638E
:04111C00613A000034
:107E0000112484B714BE81FFF0D085E080938100F7
:107E100082E08093C00088E18093C10086E0809377
:107E2000C20080E18093C4008EE0C9D0259A86E02C
:107E300020E33CEF91E0309385002093840096BBD3
:107E4000B09BFECF1D9AA8958150A9F7CC24DD24C4
:107E500088248394B5E0AB2EA1E19A2EF3E0BF2EE7
:107E6000A2D0813461F49FD0082FAFD0023811F036
:107E7000013811F484E001C083E08DD089C08234E0
:107E800011F484E103C0853419F485E0A6D080C0E4
:107E9000853579F488D0E82EFF2485D0082F10E0AE
:107EA000102F00270E291F29000F111F8ED06801E7
:107EB0006FC0863521F484E090D080E0DECF843638
:107EC00009F040C070D06FD0082F6DD080E0C81688
:107ED00080E7D80618F4F601B7BEE895C0E0D1E017
:107EE00062D089930C17E1F7F0E0CF16F0E7DF06D8
:107EF00018F0F601B7BEE89568D007B600FCFDCFD4
:107F0000A601A0E0B1E02C9130E011968C91119780
:107F100090E0982F8827822B932B1296FA010C0160
:107F200087BEE89511244E5F5F4FF1E0A038BF0790
:107F300051F7F601A7BEE89507B600FCFDCF97BE46
:107F4000E89526C08437B1F42ED02DD0F82E2BD052
:107F50003CD0F601EF2C8F010F5F1F4F84911BD097
:107F6000EA94F801C1F70894C11CD11CFA94CF0C13
:107F7000D11C0EC0853739F428D08EE10CD085E9AC
:107F80000AD08FE07ACF813511F488E018D01DD067
:107F900080E101D065CF982F8091C00085FFFCCF94
:107FA0009093C60008958091C00087FFFCCF809118
:107FB000C00084FD01C0A8958091C6000895E0E648
:107FC000F0E098E1908380830895EDDF803219F02E
:107FD00088E0F5DFFFCF84E1DECF1F93182FE3DFCA
:107FE0001150E9F7F2DF1F91089580E0E8DFEE27F6
:047FF000FF270994CA
:027FFE00040479
:0400000300007E007B
:00000001FF
