:100000000C945D000C9485000C9485000C94850084
:100010000C9485000C9485000C9485000C9485004C
:100020000C9485000C9485000C9485000C9485003C
:100030000C9485000C9485000C9485000C9485002C
:100040000C94FD030C9485000C9485000C948500A1
:100050000C9485000C9485000C9485000C9485000C
:100060000C9447040C948500000000080002010075
:100070000003040700000000000000000000000072
:10008000250028002B0000000000240027002A0083
:10009000040404040404040402020202020203032E
:1000A0000303030301020408102040800102040836
:1000B0001020010204081020660511241FBECFEF96
:1000C000D8E0DEBFCDBF22E0A8E2B1E001C01D92C2
:1000D000A930B207E1F711E0A0E0B1E0E2E8FEE00C
:1000E00002C005900D92A832B107D9F710E0CDE516
:1000F000D0E004C02197FE010E943907CC35D1071A
:10010000C9F70E9494050C943F070C94000090E0FE
:10011000FC01EC55FF4F249180579F4FFC018491C7
:10012000882399F090E0880F991FFC01EA57FF4F50
:10013000A591B491FC01E458FF4F859194918FB73C
:10014000F894EC91E22BEC938FBF0895982F2091B7
:10015000E40181E0213208F043C08091C0018111A7
:10016000FCCF8091E30132E03093C0019093BF0156
:100170009FEF9093BE011092BD012093BC01A3ECB0
:10018000B1E0ECE9F1E090E0291331C010929B015D
:1001900090919B01880F892B80939B0180919A01FC
:1001A000813049F510929A0180919B018093BB00A8
:1001B0008091BC0083FDF8CF85EC8093BC008091DA
:1001C000C0018230E1F38091BE018F3FB1F0809198
:1001D000BE018032A1F08091BE01803391F084E0B5
:1001E0001092C2011092E4011092C10108953D9154
:1001F00031939F5FC9CF85EEE0CF80E0F1CF82E001
:10020000EFCF83E0EDCF08950895AF92BF92CF92E4
:10021000DF92EF92FF920F931F93CF93DF936C01C6
:100220007B018B01040F151FEB015E01AE18BF08A7
:10023000C017D10759F06991D601ED91FC91019059
:10024000F081E02DC6010995892B79F7C501DF9171
:10025000CF911F910F91FF90EF90DF90CF90BF90C3
:10026000AF90089590E0FC01E859FF4F2491FC0104
:10027000EC55FF4F3491FC01E057FF4FE491EE2322
:10028000C9F0222339F0233001F1A8F4213019F10B
:10029000223029F1F0E0EE0FFF1FE458FF4FA59147
:1002A000B4918FB7F894EC91611126C030953E233C
:1002B0003C938FBF08952730A9F02830C9F024302F
:1002C00049F7809180008F7D03C0809180008F77F7
:1002D00080938000DFCF84B58F7784BDDBCF84B57A
:1002E0008F7DFBCF8091B0008F778093B000D2CF0D
:1002F0008091B0008F7DF9CF3E2BDACF85ED8093D2
:10030000BC008091BC0084FDFCCF1092C001089518
:1003100020914801260F3327331F21323105ECF499
:100320002091C001FC0190E080E0243069F082E07F
:100330000895A09148012191AC01485D5E4FA40F42
:10034000B52FB11D2C930196861798F38091480123
:10035000680F6093480180E0089581E00895089552
:10036000E091790180917801E81730F4F0E0E658E7
:10037000FE4F808190E008958FEF9FEF0895909158
:100380007901809178012FEF3FEF981748F4E92F1A
:10039000F0E0E658FE4F208130E09F5F90937901B6
:1003A000C90108958091780190917901891B990B79
:1003B0000895CF92DF92EF92FF920F931F93CF9306
:1003C000DF937C01CB018A012091C101222389F0B6
:1003D000EB016B01C40ED51ECC15DD0569F06991EA
:1003E000D701ED91FC910190F081E02DC7010995B5
:1003F000F3CF642F0E948801C801DF91CF911F9134
:100400000F91FF90EF90DF90CF900895CF93DF93FF
:100410001F92CDB7DEB769832091C1012223F9F085
:100420002091E401203258F021E030E0FC013383D8
:10043000228390E080E00F90DF91CF91089580912A
:10044000C201E82FF0E0ED53FE4F998190838F5F5A
:100450008093C2018093E40181E090E0ECCF61E001
:10046000CE0101960E948801F7CF089590E080E0C8
:1004700008958F929F92AF92BF920F931F93CF9345
:10048000DF93CDB7DEB7A1970FB6F894DEBF0FBEEE
:10049000CDBF19A2423008F44AE08E010F5D1F4F14
:1004A000842E912CB12CA12CA50194010E94170738
:1004B000E62FB901CA01EA3044F5E05DD801EE93B8
:1004C0008D01232B242B252B79F790E080E01097CA
:1004D00069F0FD0101900020E9F73197AF014A1B57
:1004E0005B0BBD0181EF91E00E940501A1960FB663
:1004F000F894DEBF0FBECDBFDF91CF911F910F915A
:10050000BF90AF909F908F900895E95CD7CFFC018A
:1005100001900020E9F73197AF01481B590BBC014E
:1005200081EF91E00C940501CF93DF93EC0160E043
:100530008E810E94320161E08E810E94320160E072
:100540008E810E9432018BE891E00197F1F7DF91F3
:10055000CF910895CF92DF92EF92FF920F931F9366
:10056000CF93DF936C017C0187E0E80EF11CD0E0B3
:10057000C0E0062F10E0B8010C2E02C075956795FB
:100580000A94E2F76170F70181917F010E943201C4
:100590002196C430D10579F7C601DF91CF911F9123
:1005A0000F91FF90EF90DF90CF900C949402CF9238
:1005B000DF92EF92FF920F931F93CF93DF93EC01A3
:1005C000F62E642F8C810E9432018D818F3F19F0AD
:1005D00060E00E9432010F2D10E08F8584FF25C05E
:1005E0006E0187E0C80ED11CF12CE12CB8010E2C55
:1005F00002C0759567950A94E2F76170F6018191E2
:100600006F010E943201FFEFEF1AFF0A88E0E8163F
:10061000F10461F7CE01DF91CF911F910F91FF900F
:10062000EF90DF90CF900C949402B80184E0759520
:1006300067958A95E1F7CE010E94AA026F2DCE013F
:10064000DF91CF911F910F91FF90EF90DF90CF90AE
:100650000C94AA0240E0682F81EF91E00C94D7023D
:10066000CF93DF93823029F49091000298609093A9
:100670000002809304021092050280E48093060237
:1006800080E18093070280E5809308028091F50164
:100690000E9487008091F6018F3F11F00E94870031
:1006A0008091F7010E948700C1EFD1E09E01215F98
:1006B00031408091000284FD0AC084E090E02196E0
:1006C000281739073CF48E810E948700EFCF88E01D
:1006D00090E0F5CF8BE39DE00197F1F760E080912A
:1006E000F5010E94320160E08091F7010E94320121
:1006F0008091F6018F3F19F060E00E9432018091F5
:10070000000284FD39C063E081EF91E00E94AA02FB
:10071000CBE4D6E4CE010197F1F763E081EF91E0FD
:100720000E94AA022197F1F763E081EF91E00E9415
:10073000AA0283E592E00197F1F762E081EF91E090
:100740000E94AA028091000280620E942A0384E033
:10075000809301028CE00E942A0381E00E942A0318
:100760008BE39FE10197F1F782E08093020286E03C
:10077000DF91CF910C942A0380620E942A038BE4BC
:1007800096E40197F1F78091000280620E942A03AB
:1007900083E592E00197F1F78091000280620E9468
:1007A0002A03D0CF41E00E94D70281E090E0089573
:1007B000CF92DF92EF92FF9297FF18C06B017C01FE
:1007C00041E06DE281EF91E00E94D7026627772732
:1007D000CB016C197D098E099F094AE00E943902FC
:1007E0000196FF90EF90DF90CF9008954AE0FF9040
:1007F000EF90DF90CF900C9439021F920F920FB6BA
:100800000F9211242F933F938F939F93AF93BF9396
:100810008091700190917101A0917201B09173016A
:1008200030916F0123E0230F2D3758F50196A11D5C
:10083000B11D20936F018093700190937101A0937B
:100840007201B093730180916B0190916C01A09142
:100850006D01B0916E010196A11DB11D80936B01D8
:1008600090936C01A0936D01B0936E01BF91AF9115
:100870009F918F913F912F910F900FBE0F901F90DE
:10088000189526E8230F0296A11DB11DD2CF1F9205
:100890000F920FB60F9211242F933F934F935F93B4
:1008A0006F937F938F939F93AF93BF93EF93FF9338
:1008B0008091B900887F803609F44AC0F0F588320B
:1008C00009F4A7C018F5803109F49BC0B8F4882357
:1008D00009F4F9C0883009F494C0FF91EF91BF91F9
:1008E000AF919F918F917F916F915F914F913F91C8
:1008F0002F910F900FBE0F901F901895883109F41B
:1009000088C0803251F78093BE0114C0803409F44E
:100910009DC040F48033B9F38833F9F68093BE016B
:1009200085ECB0C0803509F485C0883509F496C0DF
:10093000883499F60E947E01D0CF883909F48CC0A2
:1009400038F5883729F050F4883611F0803729F6C9
:1009500083E08093C00110926A0157C0883809F47F
:100960007BC0803919F0803809F0B7CF80916A01D7
:10097000803208F071C0E0916A0181E08E0F8093AF
:100980006A018091BB00F0E0E65BFE4F80833DC0D2
:10099000803B39F0E0F4803A09F479C0883A09F0F4
:1009A0009CCF84E08093C0011092490110924801CD
:1009B000E0917601F09177010995809148018111CC
:1009C0000FC081E0809348011092280109C0803C4B
:1009D00009F4A6CF883C09F4A3CF883B09F07DCF6A
:1009E000E091490181E08E0F80934901F0E0E85DDC
:1009F000FE4F80818093BB00909149018091480116
:100A000029C080919B018093BB0085EC8093BC0042
:100A100064CF9091BD018091BC01981758F5E09189
:100A2000BD0181E08E0F8093BD01F0E0E456FE4FE2
:100A30008081E9CFE091BD0181E08E0F8093BD01FF
:100A40008091BB00F0E0E456FE4F80839091BD01A1
:100A50008091BC019817C8F285E8D8CFE091BD011C
:100A600081E08E0F8093BD018091BB00F0E0E456E1
:100A7000FE4F80838091BF0181115CCF81E0809324
:100A80009A0184EA8093BC001092C00126CF85ECC5
:100A90008093BC001092C00180916A01803230F4D2
:100AA000E0916A01F0E0E65BFE4F108260916A011E
:100AB00070E0E0917401F09175018AE491E009958C
:100AC00010926A010ACF1092BE0134CFE5EEF1E038
:100AD0001382128288EE93E0A0E0B0E084839583D5
:100AE000A683B78384E091E091838083E1EFF1E016
:100AF0001382128286E191E09183808386E0848371
:100B00008FEF858387E0868382E0878383E0808719
:100B100084E0818785E08287138614861586168691
:100B2000178681E00C943003789484B5826084BD8C
:100B300084B5816084BD85B5826085BD85B58160E1
:100B400085BD80916E00816080936E00109281005F
:100B5000809181008260809381008091810081601A
:100B600080938100809180008160809380008091DB
:100B7000B10084608093B1008091B0008160809367
:100B8000B00080917A00846080937A0080917A002E
:100B9000826080937A0080917A00816080937A00ED
:100BA00080917A00806880937A001092C10082E080
:100BB0000E94300310927901109278011092C201C4
:100BC0001092E4011092C00181E08093BF01109265
:100BD0009A0161E082E10E94320161E083E10E94BA
:100BE00032018091B9008E7F8093B9008091B90065
:100BF0008D7F8093B90088E48093B80085E480936A
:100C0000BC0083E091E0909377018093760184E0CB
:100C100091E0909375018093740188E68093E301DD
:100C20001092E40181E00E94A600FF24F39468E69C
:100C3000E62EDD24DA9476E0C72EE5EEBE2EF5EC46
:100C4000AF2E00E010E0F092C101E092E3011092BB
:100C5000C2011092E40160E085EE91E00E9406027C
:100C600081E00E94A6008091C0018111FCCFF0922A
:100C7000C001F092BF01D092BE011092BD01C0929E
:100C8000BC01F0929B0180919B01806D80939B0140
:100C900080919A01813009F0BFC010929A01809131
:100CA0009B018093BB008091BC0083FDF8CFA09294
:100CB000BC008091C0018130E1F38091BD0197E0DB
:100CC000873010F49091BD01ACE9B1E0EAE7F1E0C2
:100CD00080E08913A4C0109279018093780185EE99
:100CE00091E00E94BF018F77282F30E094E0359586
:100CF00027959A95E1F7922F990F990FC22FC91B4B
:100D0000CC0FC80F85EE91E00E94BF019C0144E02A
:100D1000359527954A95E1F72F703327922F990F34
:100D2000990FD22FD91BDD0FD80F85EE91E00E94CD
:100D3000BF019C0154E0359527955A95E1F72F7036
:100D40003327922F990F990F291B220F922E980E5D
:100D500085EE91E00E94BF0185EE91E00E94BF0107
:100D600085EE91E00E94BF0185EE91E00E94BF01F7
:100D7000E1E0809104028111E0E0E195F0E0EF50C4
:100D8000FE4F848980680E942A038EE191E00E94D0
:100D90008702692D70E090E080E00E94D80382E233
:100DA00091E00E9487026D2F70E090E080E00E9449
:100DB000D80382E291E00E9487026C2F70E090E0FD
:100DC00080E00E94D803E0910402E23060F5E15037
:100DD000F0E0EF50FE4F84898F5F80680E942A0305
:100DE00084E291E00E948702E0910402E230E8F49C
:100DF000E150F0E0EF50FE4F8489825F80680E94EE
:100E00002A0386E291E00E9487020115110509F488
:100E10001ACF0E94000017CFB092BC004ACF2D918C
:100E200021938F5F56CFE1E0D3CFE1E0E2CFA1E2A3
:100E30001A2EAA1BBB1BFD010DC0AA1FBB1FEE1F54
:100E4000FF1FA217B307E407F50720F0A21BB30B9F
:100E5000E40BF50B661F771F881F991F1A9469F71B
:100E600060957095809590959B01AC01BD01CF0177
:100E70000895EE0FFF1F0590F491E02D0994F8946A
:020E8000FFCFA2
:100E8200000000000602D9013602AF01D201BF0103
:100E9200B00100000000D203050136023502486F9E
:080EA20072613A003C003E00C1
:00000001FF
