:100000000C945D000C9485000C9485000C94850084
:100010000C9485000C9485000C9485000C9485004C
:100020000C9485000C9485000C9485000C9485003C
:100030000C9485000C9485000C9485000C9485002C
:100040000C9461040C9485000C9485000C9485003C
:100050000C9485000C9485000C9485000C9485000C
:100060000C94AB040C9485000000000024002700D1
:100070002A0000000000250028002B0004040404CE
:100080000404040402020202020203030303030342
:10009000010204081020408001020408102001021F
:1000A00004081020000000080002010000030407FB
:1000B0000000000000000000CA0511241FBECFEFA1
:1000C000D8E0DEBFCDBF22E0A4E2B1E001C01D92C6
:1000D000A530B207E1F711E0A0E0B1E0E2EEFFE009
:1000E00002C005900D92A432B107D9F710E0CDE51A
:1000F000D0E004C02197FE010E94E907CC35D1076A
:10010000C9F70E94F8050C94EF070C940000982F93
:100110002091E00181E0213208F043C08091BC01D0
:100120008111FCCF8091DF0132E03093BC019093CC
:10013000BB019FEF9093BA011092B9012093B801CF
:10014000AFEBB1E0E8E9F1E090E0291331C01092A3
:10015000970190919701880F892B80939701809147
:100160009601813049F51092960180919701809314
:10017000BB008091BC0083FDF8CF85EC8093BC0070
:100180008091BC018230E1F38091BA018F3FB1F0E0
:100190008091BA018032A1F08091BA01803391F050
:1001A00084E01092BE011092E0011092BD0108950A
:1001B0003D9131939F5FC9CF85EEE0CF80E0F1CFD5
:1001C00082E0EFCF83E0EDCF08950895AF92BF9224
:1001D000CF92DF92EF92FF920F931F93CF93DF9313
:1001E0006C017B018B01040F151FEB015E01AE1842
:1001F000BF08C017D10759F06991D601ED91FC9164
:100200000190F081E02DC6010995892B79F7C50190
:10021000DF91CF911F910F91FF90EF90DF90CF90E2
:10022000BF90AF90089590E0FC01EC55FF4F2491F2
:10023000FC01E057FF4F3491FC01E458FF4FE4917B
:10024000EE23C9F0222339F0233001F1A8F4213044
:1002500019F1223029F1F0E0EE0FFF1FEE58FF4FA9
:10026000A591B4918FB7F894EC91611126C03095A7
:100270003E233C938FBF08952730A9F02830C9F062
:10028000243049F7809180008F7D03C080918000E9
:100290008F7780938000DFCF84B58F7784BDDBCFED
:1002A00084B58F7DFBCF8091B0008F778093B000B5
:1002B000D2CF8091B0008F7DF9CF3E2BDACFCF9394
:1002C000DF9390E0FC01E057FF4F249184589F4F4B
:1002D000FC0184918823D1F090E0880F991FFC01E4
:1002E000E859FF4FA591B491FC01EE58FF4FC5911D
:1002F000D49161110EC09FB7F8948C91E22FE095D4
:100300008E238C932881E223E8839FBFDF91CF91D6
:1003100008958FB7F894EC91E22BEC938FBFF6CF52
:100320003FB7F89480916C0190916D01A0916E019E
:10033000B0916F0126B5A89B05C02F3F19F001961B
:10034000A11DB11D3FBFBA2FA92F982F8827BC012F
:10035000CD01620F711D811D911D42E0660F771F57
:10036000881F991F4A95D1F708958F929F92AF9257
:10037000BF92CF92DF92EF92FF924B015C010E94FD
:1003800090016B017C010E9490016C197D098E091E
:100390009F09683E734081059105A8F321E0821A08
:1003A0009108A108B10888EEC80E83E0D81EE11CB0
:1003B000F11C81149104A104B10429F7FF90EF907E
:1003C000DF90CF90BF90AF909F908F90089585ED74
:1003D0008093BC008091BC0084FDFCCF1092BC01D6
:1003E000089520914401260F3327331F2132310510
:1003F000ECF42091BC01FC0190E080E0243069F035
:1004000082E00895A09144012191AC014C5D5E4FC2
:10041000A40FB52FB11D2C930196861798F38091E8
:100420004401680F6093440180E0089581E00895DD
:100430000895E091750180917401E81730F4F0E0BF
:10044000EA58FE4F808190E008958FEF9FEF089566
:1004500090917501809174012FEF3FEF981748F448
:10046000E92FF0E0EA58FE4F208130E09F5F909343
:100470007501C90108958091740190917501891BDE
:10048000990B0895CF92DF92EF92FF920F931F93F3
:10049000CF93DF937C01CB018A012091BD01222300
:1004A00089F0EB016B01C40ED51ECC15DD0569F09A
:1004B0006991D701ED91FC910190F081E02DC70188
:1004C0000995F3CF642F0E94F101C801DF91CF910C
:1004D0001F910F91FF90EF90DF90CF900895CF93F1
:1004E000DF931F92CDB7DEB769832091BD01222330
:1004F000F9F02091E001203258F021E030E0FC01D9
:100500003383228390E080E00F90DF91CF910895B4
:100510008091BE01E82FF0E0E154FE4F9981908375
:100520008F5F8093BE018093E00181E090E0ECCF8B
:1005300061E0CE0101960E94F101F7CF089590E0AD
:1005400080E008958F929F92AF92BF920F931F9376
:10055000CF93DF93CDB7DEB7A1970FB6F894DEBF88
:100560000FBECDBF19A2423008F44AE08E010F5DE4
:100570001F4F842E912CB12CA12CA50194010E9417
:10058000C707E62FB901CA01EA3044F5E05DD8019A
:10059000EE938D01232B242B252B79F790E080E01F
:1005A000109769F0FD0101900020E9F73197AF0144
:1005B0004A1B5B0BBD018DEE91E00E94E600A19607
:1005C0000FB6F894DEBF0FBECDBFDF91CF911F9164
:1005D0000F91BF90AF909F908F900895E95CD7CF17
:1005E000FC0101900020E9F73197AF01481B590B3E
:1005F000BC018DEE91E00C94E600CF93DF93EC010B
:1006000060E08E810E94130161E08E810E941301DF
:1006100060E08E810E9413018BE891E00197F1F771
:10062000DF91CF910895CF92DF92EF92FF920F93D7
:100630001F93CF93DF936C017C0187E0E80EF11CE0
:10064000D0E0C0E0062F10E0B8010C2E02C0759576
:1006500067950A94E2F76170F70181917F010E942A
:1006600013012196C430D10579F7C601DF91CF91EE
:100670001F910F91FF90EF90DF90CF900C94FD02AF
:10068000CF92DF92EF92FF920F931F93CF93DF935E
:10069000EC01F62E642F8C810E9413018D818F3F17
:1006A00019F060E00E9413010F2D10E08F8584FF88
:1006B00025C06E0187E0C80ED11CF12CE12CB801D9
:1006C0000E2C02C0759567950A94E2F76170F601E9
:1006D00081916F010E941301FFEFEF1AFF0A88E07A
:1006E000E816F10461F7CE01DF91CF911F910F91D0
:1006F000FF90EF90DF90CF900C94FD02B80184E062
:10070000759567958A95E1F7CE010E9413036F2DC9
:10071000CE01DF91CF911F910F91FF90EF90DF906D
:10072000CF900C94130340E0682F8DEE91E00C9471
:100730004003CF93DF93823029F49091FC019860BD
:100740009093FC01809300021092010280E4809358
:10075000020280E18093030280E58093040261E05D
:100760008091F1010E945F018091F2018F3F19F0A9
:1007700061E00E945F0161E08091F3010E945F01EE
:10078000CDEED1E09E012D5E31408091FC0184FDD3
:100790000BC084E090E021962817390744F461E00B
:1007A0008E810E945F01EECF88E090E0F4CF8BE372
:1007B0009DE00197F1F760E08091F1010E94130143
:1007C00060E08091F3010E9413018091F2018F3F5C
:1007D00019F060E00E9413018091FC0184FD39C092
:1007E00063E08DEE91E00E941303CBE4D6E4CE01EA
:1007F0000197F1F763E08DEE91E00E9413032197DA
:10080000F1F763E08DEE91E00E94130383E592E03F
:100810000197F1F762E08DEE91E00E941303809161
:10082000FC0180620E94930384E08093FD018CE0D0
:100830000E94930381E00E9493038BE39FE1019761
:10084000F1F782E08093FE0186E0DF91CF910C9476
:10085000930380620E9493038BE496E40197F1F77F
:100860008091FC0180620E94930383E592E00197EE
:10087000F1F78091FC0180620E949303D0CF41E0A8
:100880000E94400381E090E00895CF92DF92EF92C2
:10089000FF926B017C0141E06DE28DEE91E00E94E0
:1008A000400366277727CB016C197D098E099F09C4
:1008B0004AE00E94A2020196FF90EF90DF90CF9055
:1008C00008951F920F920FB60F9211242F933F930A
:1008D0008F939F93AF93BF9380916801909169012B
:1008E000A0916A01B0916B013091670123E0230F61
:1008F0002D3758F50196A11DB11D209367018093F6
:10090000680190936901A0936A01B0936B01809193
:100910006C0190916D01A0916E01B0916F010196F3
:10092000A11DB11D80936C0190936D01A0936E0188
:10093000B0936F01BF91AF919F918F913F912F9194
:100940000F900FBE0F901F90189526E8230F029668
:10095000A11DB11DD2CF1F920F920FB60F9211247D
:100960002F933F934F935F936F937F938F939F93B7
:10097000AF93BF93EF93FF938091B900887F803648
:1009800009F44AC0F0F5883209F4A7C018F580319F
:1009900009F49BC0B8F4882309F4F9C0883009F43D
:1009A00094C0FF91EF91BF91AF919F918F917F91F3
:1009B0006F915F914F913F912F910F900FBE0F90CC
:1009C0001F901895883109F488C0803251F78093C0
:1009D000BA0114C0803409F49DC040F48033B9F3E7
:1009E0008833F9F68093BA0185ECB0C0803509F4FC
:1009F00085C0883509F496C0883499F60E94E701CD
:100A0000D0CF883909F48CC038F5883729F050F4F4
:100A1000883611F0803729F683E08093BC0110926C
:100A2000660157C0883809F47BC0803919F08038D6
:100A300009F0B7CF80916601803208F071C0E09173
:100A4000660181E08E0F809366018091BB00F0E02B
:100A5000EA5BFE4F80833DC0803B39F0E0F4803A92
:100A600009F479C0883A09F09CCF84E08093BC01F6
:100A70001092450110924401E0917201F0917301CE
:100A800009958091440181110FC081E08093440158
:100A90001092240109C0803C09F4A6CF883C09F4D7
:100AA000A3CF883B09F07DCFE091450181E08E0F17
:100AB00080934501F0E0EC5DFE4F80818093BB00A8
:100AC000909145018091440129C0809197018093C4
:100AD000BB0085EC8093BC0064CF9091B9018091FC
:100AE000B801981758F5E091B90181E08E0F809315
:100AF000B901F0E0E856FE4F8081E9CFE091B901FD
:100B000081E08E0F8093B9018091BB00F0E0E85640
:100B1000FE4F80839091B9018091B8019817C8F277
:100B200085E8D8CFE091B90181E08E0F8093B901BB
:100B30008091BB00F0E0E856FE4F80838091BB01BE
:100B400081115CCF81E08093960184EA8093BC00A0
:100B50001092BC0126CF85EC8093BC001092BC01A2
:100B600080916601803230F4E0916601F0E0EA5B4A
:100B7000FE4F10826091660170E0E0917001F0918B
:100B8000710186E491E00995109266010ACF1092F6
:100B9000BA0134CFE1EEF1E01382128288EE93E0E5
:100BA000A0E0B0E084839583A683B78384E091E0DE
:100BB00091838083EDEEF1E01382128286E191E071
:100BC0009183808386E084838FEF858387E08683AB
:100BD00082E0878383E0808784E0818785E0828765
:100BE0001386148615861686178681E00C94990361
:100BF000789484B5826084BD84B5816084BD85B5F8
:100C0000826085BD85B5816085BD80916E00816003
:100C100080936E00109281008091810082608093A9
:100C200081008091810081608093810080918000AB
:100C30008160809380008091B10084608093B100D6
:100C40008091B00081608093B00080917A008460D0
:100C500080937A0080917A00826080937A008091FC
:100C60007A00816080937A0080917A008068809316
:100C70007A001092C10082E00E94990310927501DF
:100C8000109274011092BE011092E0011092BC010A
:100C900081E08093BB011092960161E082E10E94A5
:100CA000130161E083E10E9413018091B9008E7FFE
:100CB0008093B9008091B9008D7F8093B90088E45A
:100CC0008093B80085E48093BC0084EE90E090931C
:100CD00073018093720185EE90E09093710180938F
:100CE000700188E68093DF011092E00181E00E94AC
:100CF000870061E080E00E945F0161E081E00E9486
:100D00005F0160E089E00E945F0160E088E00E948E
:100D10005F0160E080E10E945F0160E08DE00E9481
:100D20005F0160E08CE00E945F0160E08BE00E9468
:100D30005F0160E08AE00E945F01FF24F39458E6BF
:100D4000E52EDD24DA9466E0C62E75EEB72EE5ECCE
:100D5000AE2E00E010E0F092BD01E092DF011092B3
:100D6000BE011092E00160E081EE91E00E946F020E
:100D700081E00E9487008091BC018111FCCFF0923C
:100D8000BC01F092BB01D092BA011092B901C0929D
:100D9000B801F092970180919701806D809397013F
:100DA00080919601813009F0E7C010929601809100
:100DB00097018093BB008091BC0083FDF8CFA09287
:100DC000BC008091BC018130E1F38091B90197E0D2
:100DD000873010F49091B901A8E9B1E0E6E7F1E0BD
:100DE00080E08913CCC0109275018093740181EE6C
:100DF00091E00E94280281EE91E00E9428029C016D
:100E000094E0359527959A95E1F72F703327922F27
:100E1000990F990FC22FC91BCC0FC80F81EE91E01B
:100E20000E9428029C0144E0359527954A95E1F7F8
:100E30002F703327922F990F990F291B622F660F5E
:100E4000D62FD80F81EE91E00E94280281EE91E02A
:100E50000E94280281EE91E00E94280281EE91E03A
:100E60000E942802E1E0809100028111E0E0E1951A
:100E7000F0E0E351FE4F848980680E9493036D2F58
:100E800070E090E080E04AE00E94A2028EE191E0F2
:100E90000E94F0026C2F70E090E080E04AE00E9437
:100EA000A202E0910002E23008F06DC0E150F0E0F3
:100EB000E351FE4F84898F5F80680E94930380E234
:100EC00091E00E94F002E0910002E23008F05DC083
:100ED000E150F0E0E351FE4F8489825F80680E9418
:100EE000930382E291E00E94F00261E080E00E94C0
:100EF000130161E081E00E94130162E070E080E094
:100F000090E00E94B50160E081E00E94130162E17F
:100F100070E080E090E00E94B50160EA7FE080E050
:100F200090E00E94B50160E080E00E94130161E062
:100F300081E00E94130161E070E080E090E00E9497
:100F4000B50160E081E00E94130162E170E080E0A1
:100F500090E00E94B50160ED77E080E090E00E94B3
:100F6000B50160E081E00E9413010115110509F44B
:100F7000F2CE0E940000EFCEB092BC0022CF2D91A5
:100F800021938F5F2ECFE1E092CFE1E0A2CFA1E2EB
:100F90001A2EAA1BBB1BFD010DC0AA1FBB1FEE1FF3
:100FA000FF1FA217B307E407F50720F0A21BB30B3E
:100FB000E40BF50B661F771F881F991F1A9469F7BA
:100FC00060957095809590959B01AC01BD01CF0116
:100FD0000895EE0FFF1F0590F491E02D0994F89409
:020FE000FFCF41
:100FE200000000006F0242029F0218023B02280228
:100FF2001902000000003F04E6009F029E023A0030
:041002003C003E0070
:107E0000112484B714BE81FFF0D085E080938100F7
:107E100082E08093C00088E18093C10086E0809377
:107E2000C20080E18093C4008EE0C9D0259A86E02C
:107E300020E33CEF91E0309385002093840096BBD3
:107E4000B09BFECF1D9AA8958150A9F7CC24DD24C4
:107E500088248394B5E0AB2EA1E19A2EF3E0BF2EE7
:107E6000A2D0813461F49FD0082FAFD0023811F036
:107E7000013811F484E001C083E08DD089C08234E0
:107E800011F484E103C0853419F485E0A6D080C0E4
:107E9000853579F488D0E82EFF2485D0082F10E0AE
:107EA000102F00270E291F29000F111F8ED06801E7
:107EB0006FC0863521F484E090D080E0DECF843638
:107EC00009F040C070D06FD0082F6DD080E0C81688
:107ED00080E7D80618F4F601B7BEE895C0E0D1E017
:107EE00062D089930C17E1F7F0E0CF16F0E7DF06D8
:107EF00018F0F601B7BEE89568D007B600FCFDCFD4
:107F0000A601A0E0B1E02C9130E011968C91119780
:107F100090E0982F8827822B932B1296FA010C0160
:107F200087BEE89511244E5F5F4FF1E0A038BF0790
:107F300051F7F601A7BEE89507B600FCFDCF97BE46
:107F4000E89526C08437B1F42ED02DD0F82E2BD052
:107F50003CD0F601EF2C8F010F5F1F4F84911BD097
:107F6000EA94F801C1F70894C11CD11CFA94CF0C13
:107F7000D11C0EC0853739F428D08EE10CD085E9AC
:107F80000AD08FE07ACF813511F488E018D01DD067
:107F900080E101D065CF982F8091C00085FFFCCF94
:107FA0009093C60008958091C00087FFFCCF809118
:107FB000C00084FD01C0A8958091C6000895E0E648
:107FC000F0E098E1908380830895EDDF803219F02E
:107FD00088E0F5DFFFCF84E1DECF1F93182FE3DFCA
:107FE0001150E9F7F2DF1F91089580E0E8DFEE27F6
:047FF000FF270994CA
:027FFE00040479
:0400000300007E007B
:00000001FF
