:100000000C945D000C9485000C9485000C94850084
:100010000C9485000C9485000C9485000C9485004C
:100020000C9485000C9485000C9485000C9485003C
:100030000C9485000C9485000C9485000C9485002C
:100040000C947C040C9485000C9485000C94850021
:100050000C9485000C9485000C9485000C9485000C
:100060000C94C6040C9485000000000024002700B6
:100070002A0000000000250028002B0004040404CE
:100080000404040402020202020203030303030342
:10009000010204081020408001020408102001021F
:1000A00004081020000000080002010000030407FB
:1000B0000000000000000000E50511241FBECFEF86
:1000C000D8E0DEBFCDBF11E0A0E0B1E0E6ECF0E1AA
:1000D00002C005900D92A433B107D9F722E0A4E342
:1000E000B1E001C01D92A731B207E1F710E0CDE504
:1000F000D0E004C02197FE010E945B08CC35D107F7
:10010000C9F70E9413060C9461080C940000982F04
:100110002091F20181E0213208F043C08091CE01AC
:100120008111FCCF8091F10132E03093CE019093A8
:10013000CD019FEF9093CC011092CB012093CA0187
:10014000A1EDB1E0EAEAF1E090E0291331C01092AC
:10015000A9019091A901880F892B8093A901809111
:10016000A801813049F51092A8018091A9018093DE
:10017000BB008091BC0083FDF8CF85EC8093BC0070
:100180008091CE018230E1F38091CC018F3FB1F0BC
:100190008091CC018032A1F08091CC01803391F02C
:1001A00084E01092D0011092F2011092CF010895D4
:1001B0003D9131939F5FC9CF85EEE0CF80E0F1CFD5
:1001C00082E0EFCF83E0EDCF08950895AF92BF9224
:1001D000CF92DF92EF92FF920F931F93CF93DF9313
:1001E0006C017B018B01040F151FEB015E01AE1842
:1001F000BF08C017D10759F06991D601ED91FC9164
:100200000190F081E02DC6010995892B79F7C50190
:10021000DF91CF911F910F91FF90EF90DF90CF90E2
:10022000BF90AF90089590E0FC01EC55FF4F2491F2
:10023000FC01E057FF4F3491FC01E458FF4FE4917B
:10024000EE23C9F0222339F0233001F1A8F4213044
:1002500019F1223029F1F0E0EE0FFF1FEE58FF4FA9
:10026000A591B4918FB7F894EC91611126C03095A7
:100270003E233C938FBF08952730A9F02830C9F062
:10028000243049F7809180008F7D03C080918000E9
:100290008F7780938000DFCF84B58F7784BDDBCFED
:1002A00084B58F7DFBCF8091B0008F778093B000B5
:1002B000D2CF8091B0008F7DF9CF3E2BDACFCF9394
:1002C000DF9390E0FC01E057FF4F249184589F4F4B
:1002D000FC0184918823D1F090E0880F991FFC01E4
:1002E000E859FF4FA591B491FC01EE58FF4FC5911D
:1002F000D49161110EC09FB7F8948C91E22FE095D4
:100300008E238C932881E223E8839FBFDF91CF91D6
:1003100008958FB7F894EC91E22BEC938FBFF6CF52
:100320003FB7F89480917C0190917D01A0917E016E
:10033000B0917F0126B5A89B05C02F3F19F001960B
:10034000A11DB11D3FBFBA2FA92F982F8827BC012F
:10035000CD01620F711D811D911D42E0660F771F57
:10036000881F991F4A95D1F708958F929F92AF9257
:10037000BF92CF92DF92EF92FF924B015C010E94FD
:1003800090016B017C010E9490016C197D098E091E
:100390009F09683E734081059105A8F321E0821A08
:1003A0009108A108B10888EEC80E83E0D81EE11CB0
:1003B000F11C81149104A104B10429F7FF90EF907E
:1003C000DF90CF90BF90AF909F908F90089585ED74
:1003D0008093BC008091BC0084FDFCCF1092CE01C4
:1003E000089520915401260F3327331F2132310500
:1003F000ECF42091CE01FC0190E080E0243069F023
:1004000082E00895A09154012191AC014C5C5E4FB3
:10041000A40FB52FB11D2C930196861798F38091E8
:100420005401680F6093540180E0089581E00895BD
:100430000895E091850180918401E81730F4F0E09F
:10044000EA57FE4F808190E008958FEF9FEF089567
:1004500090918501809184012FEF3FEF981748F428
:10046000E92FF0E0EA57FE4F208130E09F5F909344
:100470008501C90108958091840190918501891BAE
:10048000990B0895CF92DF92EF92FF920F931F93F3
:10049000CF93DF937C01CB018A012091CF012223EE
:1004A00089F0EB016B01C40ED51ECC15DD0569F09A
:1004B0006991D701ED91FC910190F081E02DC70188
:1004C0000995F3CF642F0E94F101C801DF91CF910C
:1004D0001F910F91FF90EF90DF90CF900895CF93F1
:1004E000DF931F92CDB7DEB769832091CF0122231E
:1004F000F9F02091F201203258F021E030E0FC01C7
:100500003383228390E080E00F90DF91CF910895B4
:100510008091D001E82FF0E0EF52FE4F9981908357
:100520008F5F8093D0018093F20181E090E0ECCF67
:1005300061E0CE0101960E94F101F7CF089590E0AD
:1005400080E008958F929F92AF92BF920F931F9376
:10055000CF93DF93CDB7DEB7A1970FB6F894DEBF88
:100560000FBECDBF19A2423008F44AE08E010F5DE4
:100570001F4F842E912CB12CA12CA50194010E9417
:100580002308E62FB901CA01EA3044F5E05DD8013D
:10059000EE938D01232B242B252B79F790E080E01F
:1005A000109769F0FD0101900020E9F73197AF0144
:1005B0004A1B5B0BBD018FEF91E00E94E600A19604
:1005C0000FB6F894DEBF0FBECDBFDF91CF911F9164
:1005D0000F91BF90AF909F908F900895E95CD7CF17
:1005E000FC0101900020E9F73197AF01481B590B3E
:1005F000BC018FEF91E00C94E600CF93DF93EC0108
:1006000060E08E810E94130161E08E810E941301DF
:1006100060E08E810E9413018BE891E00197F1F771
:10062000DF91CF910895CF92DF92EF92FF920F93D7
:100630001F93CF93DF936C017C0187E0E80EF11CE0
:10064000D0E0C0E0062F10E0B8010C2E02C0759576
:1006500067950A94E2F76170F70181917F010E942A
:1006600013012196C430D10579F7C601DF91CF91EE
:100670001F910F91FF90EF90DF90CF900C94FD02AF
:10068000CF92DF92EF92FF920F931F93CF93DF935E
:10069000EC01F62E642F8C810E9413018D818F3F17
:1006A00019F060E00E9413010F2D10E08F8584FF88
:1006B00025C06E0187E0C80ED11CF12CE12CB801D9
:1006C0000E2C02C0759567950A94E2F76170F601E9
:1006D00081916F010E941301FFEFEF1AFF0A88E07A
:1006E000E816F10461F7CE01DF91CF911F910F91D0
:1006F000FF90EF90DF90CF900C94FD02B80184E062
:10070000759567958A95E1F7CE010E9413036F2DC9
:10071000CE01DF91CF911F910F91FF90EF90DF906D
:10072000CF900C94130340E0682F8FEF91E00C946E
:10073000400381E00E9493038BE39FE10197F1F76F
:100740000895CF93DF93823029F490910E02986040
:1007500090930E02809312021092130280E4809311
:10076000140280E18093150280E58093160261E017
:10077000809103020E945F01809104028F3F19F073
:1007800061E00E945F0161E0809105020E945F01CB
:10079000CFEFD1E09E012F5F314080910E0284FDAA
:1007A0000BC084E090E021962817390744F461E0FB
:1007B0008E810E945F01EECF88E090E0F4CF8BE362
:1007C0009DE00197F1F760E0809103020E94130120
:1007D00060E0809105020E941301809104028F3F26
:1007E00019F060E00E94130180910E0284FD34C074
:1007F00063E08FEF91E00E941303CBE4D6E4CE01D7
:100800000197F1F763E08FEF91E00E9413032197C6
:10081000F1F763E08FEF91E00E94130383E592E02C
:100820000197F1F762E08FEF91E00E94130380914E
:100830000E0280620E94930384E080930F028CE09A
:100840000E9493030E94990382E08093100286E045
:10085000DF91CF910C94930380620E9493038BE409
:1008600096E40197F1F780910E0280620E94930353
:1008700083E592E00197F1F780910E0280620E9479
:100880009303D5CF90911202691710F06FEF690FA3
:10089000E62FF0E0E150FE4F9489890F80680C94B8
:1008A000930341E00E94400381E090E00895CF92DD
:1008B000DF92EF92FF9297FF18C06B017C0141E03D
:1008C0006DE28FEF91E00E94400366277727CB010E
:1008D0006C197D098E099F094AE00E94A2020196C7
:1008E000FF90EF90DF90CF9008954AE0FF90EF9057
:1008F000DF90CF900C94A2021F920F920FB60F922E
:1009000011242F933F938F939F93AF93BF93809125
:10091000780190917901A0917A01B0917B01309199
:10092000770123E0230F2D3758F50196A11DB11D46
:10093000209377018093780190937901A0937A01B5
:10094000B0937B0180917C0190917D01A0917E010B
:10095000B0917F010196A11DB11D80937C01909300
:100960007D01A0937E01B0937F01BF91AF919F91D4
:100970008F913F912F910F900FBE0F901F90189560
:1009800026E8230F0296A11DB11DD2CF1F920F9210
:100990000FB60F9211242F933F934F935F936F9352
:1009A0007F938F939F93AF93BF93EF93FF93809128
:1009B000B900887F803609F44AC0F0F5883209F41E
:1009C000A7C018F5803109F49BC0B8F4882309F456
:1009D000F9C0883009F494C0FF91EF91BF91AF91B5
:1009E0009F918F917F916F915F914F913F912F9147
:1009F0000F900FBE0F901F901895883109F488C092
:100A0000803251F78093CC0114C0803409F49DC02A
:100A100040F48033B9F38833F9F68093CC0185EC48
:100A2000B0C0803509F485C0883509F496C0883493
:100A300099F60E94E701D0CF883909F48CC038F5C7
:100A4000883729F050F4883611F0803729F683E092
:100A50008093CE011092760157C0883809F47BC08C
:100A6000803919F0803809F0B7CF80917601803253
:100A700008F071C0E091760181E08E0F80937601DD
:100A80008091BB00F0E0EA5AFE4F80833DC0803B7E
:100A900039F0E0F4803A09F479C0883A09F09CCF43
:100AA00084E08093CE011092550110925401E091A0
:100AB0008201F091830109958091540181110FC049
:100AC00081E0809354011092340109C0803C09F404
:100AD000A6CF883C09F4A3CF883B09F07DCFE091F5
:100AE000550181E08E0F80935501F0E0EC5CFE4FE4
:100AF00080818093BB00909155018091540129C061
:100B00008091A9018093BB0085EC8093BC0064CFE9
:100B10009091CB018091CA01981758F5E091CB01D3
:100B200081E08E0F8093CB01F0E0E655FE4F80818F
:100B3000E9CFE091CB0181E08E0F8093CB018091D2
:100B4000BB00F0E0E655FE4F80839091CB01809191
:100B5000CA019817C8F285E8D8CFE091CB0181E0AF
:100B60008E0F8093CB018091BB00F0E0E655FE4FE5
:100B700080838091CD0181115CCF81E08093A801B9
:100B800084EA8093BC001092CE0126CF85EC80933E
:100B9000BC001092CE0180917601803230F4E09159
:100BA0007601F0E0EA5AFE4F10826091760170E023
:100BB000E0918001F091810186E591E00995109224
:100BC00076010ACF1092CC0134CFE3EFF1E013822B
:100BD000128288EE93E0A0E0B0E084839583A68340
:100BE000B78384E091E091838083EFEFF1E013829B
:100BF000128286E191E09183808386E084838FEF87
:100C0000858387E0868382E0878383E0808784E032
:100C1000818785E082871386148615861686178657
:100C200081E00C94A103789484B5826084BD84B57E
:100C3000816084BD85B5826085BD85B5816085BDD7
:100C400080916E00816080936E001092810080918F
:100C50008100826080938100809181008160809317
:100C60008100809180008160809380008091B1003C
:100C700084608093B1008091B00081608093B00067
:100C800080917A00846080937A0080917A008260FB
:100C900080937A0080917A00816080937A008091BD
:100CA0007A00806880937A001092C10082E00E94EE
:100CB000A10310928501109284011092D00110922C
:100CC000F2011092CE0181E08093CD011092A80133
:100CD00061E082E10E94130161E083E10E9413015F
:100CE0008091B9008E7F8093B9008091B9008D7F8B
:100CF0008093B90088E48093B80085E48093BC00B9
:100D000084EE90E0909383018093820185EE90E0E1
:100D1000909381018093800188E68093F101109285
:100D2000F20181E00E94870061E080E00E945F01A3
:100D300061E081E00E945F0160E081E10E945F016B
:100D400060E089E00E945F0160E088E00E945F014E
:100D500060E080E10E945F0160E08DE00E945F0141
:100D600060E08CE00E945F0160E08BE00E945F0128
:100D700060E08AE00E945F01D1E068E6662E15EE31
:100D800005EC73E4F72E812C912C54018A94F0E049
:100D9000CF2EF0E0DF2EEE24EA9456E0752ED093AD
:100DA000CF016092F1011092D0011092F20160E047
:100DB00083EF91E00E946F0281E00E9487008091A2
:100DC000CE018111FCCFD093CE01D093CD01E09222
:100DD000CC011092CB017092CA01D093A9018091ED
:100DE000A901806D8093A9018091A801813009F04B
:100DF00004C11092A8018091A9018093BB00809149
:100E0000BC0083FDF8CF0093BC008091CE018130FF
:100E1000E1F38091CB0197E0873010F49091CB0102
:100E2000AAEAB1E0E6E8F1E080E08913E9C01092B7
:100E300085018093840183EF91E00E94280283EF73
:100E400091E00E9428029C0194E0359527959A959F
:100E5000E1F72F703327922F990F990FC22FC91BDB
:100E6000CC0FC80F83EF91E00E9428029C0144E060
:100E7000359527954A95E1F72F703327922F990FD3
:100E8000990F622F691B660F562E580E83EF91E063
:100E90000E94280283EF91E00E94280283EF91E0F4
:100EA0000E94280283EF91E00E9428020E94990389
:100EB00060E085E00E944204652D70E090E080E0F3
:100EC0000E94570481E391E00E94F0026C2F70E0D1
:100ED00090E080E00E94570461E081E00E944204BB
:100EE0008EE191E00E94F00261E08EE00E944204F7
:100EF00080E291E00E94F002C83209F077C00E94BF
:100F00009903F0927C0080917A00806480937A004B
:100F100080917A0086FDFCCF80917800A0917900C5
:100F2000BA2FA82F28EE33E00E945408A50194019F
:100F30000E9404083093A7012093A60161E081E09C
:100F40000E94130162E070E080E090E00E94B50131
:100F500060E081E00E94130162E170E080E090E0D7
:100F60000E94B50161E080E00E94130160E085E02D
:100F70000E94420482E291E00E94F00261E085E07A
:100F80000E9442046091A6017091A701072E000CF7
:100F9000880B990B0E9457048091A6019091A7019C
:100FA0008A3C21E092070CF4ACCF8A3C9140F1F0EE
:100FB00062E370E080E090E00E94B50161E081E0D2
:100FC0000E94130161E070E080E090E00E94B501B2
:100FD00060E081E00E94130162E170E080E090E057
:100FE0000E94B50160E080E00E941301C114D104A9
:100FF00009F4D5CE0E940000CECE1093BC0005CFE0
:101000002D9121938F5F11CF052E97FB1EF4009435
:101010000E941B0857FD07D00E94230807FC03D03D
:101020004EF40C941B0850954095309521953F4FF8
:101030004F4F5F4F089590958095709561957F4FC4
:101040008F4F9F4F0895A1E21A2EAA1BBB1BFD01D3
:101050000DC0AA1FBB1FEE1FFF1FA217B307E40797
:10106000F50720F0A21BB30BE40BF50B661F771FEF
:10107000881F991F1A9469F76095709580959095CF
:101080009B01AC01BD01CF010895A29FB001B39FA8
:10109000C001A39F700D811D1124911DB29F700D81
:1010A000811D1124911D08950E944508B7FF0895E0
:1010B000821B930B0895EE0FFF1F0590F491E02D16
:0610C0000994F894FFCF33
:1010C600000000006F0242029F0218023B02280243
:1010D6001902000000005104E6009F029E023C0037
:1010E6003E005065736F2064612063616D627563B5
:0410F600613A00005B
:00000001FF
